:020000040000FA
:1000000087288A0182070534023406340234063414
:10001000073405340334033404348A018207F1348D
:10002000FB340B34143424342D3433343E344D3407
:100030005C348A018207023402340334033403340B
:10004000033403340334033403348A0182070A344B
:1000500015341134113411340A34043400340434A6
:100060000A341134113411340A34043400340434A1
:100070000E3415341B34153404340E340034043477
:100080000E341F341F341F3404340E34003417343C
:100090001534153415341534153417340034173429
:1000A000163416341F34163416341734003416340C
:1000B000153415341534153415341E340034153404
:1000C0000A3415340A3415340A34153400348A01DC
:1000D00082074134323433343434353436343734AF
:1000E0003834393404344A3451344B34A8008A014A
:1000F000D601280882070034013402340334043462
:1001000006340934193432340330D6002034073031
:100110009F008316811300308500FF308600831214
:10012000FF30A300A4000030A500C42313223A2509
:100130005508DB005408DA009E22E020A024CC21E0
:1001400070252E21D1000A242A247A249825D5212D
:100150002A245108D2002E21D10052020319B328BB
:10016000EC23E8207A245108212224225508DB00C0
:100170005408DA00322260256725F5230230E400B6
:10018000DC30E3009122E8013230E700EF20D92093
:10019000A51FCD28A31BCD289E28E70BC628EC233E
:1001A000E8200130E806031DD7287A24C4288524D6
:1001B000C4282308A4000608A3002406A5000800FC
:1001C000EF20D920A51FE728A31BE7280800E02877
:1001D0001430E6002030DF23E60BEA28080048222E
:1001E0001430A000C730A1000130A200A10BF928F3
:1001F000A20BF628A00BF22800345C0EF038DF00CA
:10020000DF07E23EE000323EE2005C080F39E00723
:10021000E007E207E93EE100E107E1075D0E0F3983
:10022000E107E207E10DE20DE209E20D5D080F3999
:10023000E207DF0D0730DE000A30E207E103031CAE
:100240001D29E107E003031C2129E007DF03031C4C
:100250002529DF07DE03031C29290034CE01BA213A
:10026000CF014E1C5E21CF0803197921CE1C3F29F6
:100270004E1C3F294C08243C0319093408344F080C
:10028000063C031907344F08043C031906344E1882
:100290000534CE1804344F08033C031903344F08C7
:1002A000023C03190234CF08031900345008031923
:1002B0000134243C8039031D013400340430AA0089
:1002C0002A03A9002A083B3E840000083C39B900F3
:1002D00029083B3E840000083C393902031D73297C
:1002E000CF0A3908D000A903A91F6829AA0B6029E1
:1002F00008003B08B4003C08B5003D08B6003E08C5
:10030000B7003F08B8009E214C084A02103C031D6C
:100310008B29CE149D29CC08031D9D2934308400DF
:100320000530A90000083C39031D99290008343E16
:100330008000840AA90B92298329080038083C39D7
:10034000CA00CC00373084000430A90000083C39D2
:10035000AA004A020318AE292A08CA002A084C0239
:10036000031CB6290319B6292A08CC008403A90B5B
:10037000A62908004E103B080339B3003C30840026
:100380000430A900000803393302031DCB29840A75
:10039000A90BC2294E1408000A30AA002A080A3CF8
:1003A000EF21AA0BCE29C50108000130C600C80103
:1003B0000530A90045084605031DEA294808403EC6
:1003C00084000008CB00C80A2908053C3B3E840095
:1003D0004B0880000310C60DA90BDA290800C900DC
:1003E0000408F10048222E08CB00CB0CCB0C3F3088
:1003F000CB0534304B0280390319F229490803191F
:100400000B2AA9003B30840000084B020319F22993
:10041000840AA90B042A49083B3E84004B0880004B
:100420007108840008004030D123A9014030AA009F
:1004300029082520DF23A90AAA0B182A8030D123F6
:1004400008007620D7000800D801D9015308A90078
:100450005708D907031C2D2AD80A5608D807A90B14
:10046000282A08005908D507031C372AD40A580837
:10047000D4075408C33C031C432A031D0800550835
:10048000503C03180800C330D4005030D500080099
:10049000AF01B001B101B2017C228B227C228B2200
:1004A0008B228B227C228B228B227C228B227C2211
:1004B0008B228B228B227C228B227C228B228B22F2
:1004C0008B228B228B228B227C228B227C228B22E2
:1004D0008B227C225F30AB00F330AC006E30AD007D
:1004E0003C30AE007C222F08AB003008AC00310855
:1004F000AD003208AE0008002B08AF072C08031827
:100500002C0FB0072D0803182D0FB1072E08031864
:100510002E0FB20708000310AF0DB00DB10DB20DD4
:1005200008009A22003A03190800DF23E30A03199E
:10053000E40A912A64088A00630882000A24EC23F2
:100540000230E400B230E3009122EF230230E400F5
:10055000C730E3009122F5230230E400DC30E300F1
:10056000912208002A342A342A342A342034573479
:1005700065346C3463346F346D34653420347434D2
:100580006F3420342A342A342A342A3400344F3445
:100590006E34653420344334683469347034203424
:1005A00056346934643465346F34203450346F34D5
:1005B0006B346534723400342D3450347234653405
:1005C0007334733420344434653461346C342034EF
:1005D00074346F34203450346C34613479342D34B5
:1005E000003457346F347234743468346C34653486
:1005F0007334733400344A34613463346B34733489
:1006000020346F347234203442346534743474349A
:10061000653472340034543477346F3420345034B9
:10062000613469347234003454346834723465345B
:10063000653420346F3466342034613420344B34D4
:1006400069346E3464340034533474347234613435
:100650006934673468347434003446346C34753427
:10066000733468340034463475346C346C3420345C
:1006700048346F34753473346534003446346F3421
:100680007534723420346F3466342034613420344D
:100690004B3469346E3464340034533474347234FB
:1006A00061346934673468347434203446346C34CB
:1006B000753473346834003452346F3479346134AF
:1006C0006C34203446346C347534733468340034FC
:1006D00043346F3469346E3473343A340034423402
:1006E000653474343A34003442346534743420341C
:1006F000313420346F34723420344D3461347834E2
:10070000003442346534743420344D3461347834E8
:100710002F344434653461346C34203474346F3491
:10072000203450346C346134793400342034503403
:100730007234653473347334203444346534613432
:100740006C34203474346F34203444347234613463
:1007500077340034433468346F346F347334653421
:100760002034433461347234643473342034743448
:100770006F34203448346F346C346434003457346C
:1007800069346E343A34003412242030D1230830D6
:10079000D1232830D1230A240630D1230C30D12391
:1007A0000034A600260E0F39850005120D242608F8
:1007B0000F39850005120D2412240034303EA600A6
:1007C000260E0F39850005160D2426080F398500E1
:1007D00005160D24122400348030D1230034C0309B
:1007E000D12300349430D1230034D430D1230034C9
:1007F000803ED1230034C03ED1230034943ED12327
:100800000034D43ED12300340D30D12300340C30D9
:10081000D12300340130D1230034851700000000BB
:100820008513003483160F308500831205120517D7
:100830008517050E00008513A7000000851700002E
:1008400000008513A71B122C0513831600308500AA
:10085000831208000130C600E500AA000530A90097
:100860002A08FB23AA0AAA0AAA0AAA0A46084505D0
:10087000031D412C6F240318E5010730DF230730E7
:10088000DF230310C60DA90B302C0130C600AA00CF
:100890003B3084000530A9002A08FB23AA0AAA0AD3
:1008A000AA0AAA0A46084505031D5B2C6F240318F3
:1008B000E50100086224840A0310C60DA90B4C2C24
:1008C0006F240800CD00BA000310BA0C0310BA0C54
:1008D0003A086720DF234D080339DF230800650845
:1008E000031908000C30CD00EF20D920CD0B742C5B
:1008F0000310080051080120F82351080D20E300DF
:1009000051081920E400912208000530F823BF3077
:10091000E3000330E40091220A30F8235808DC0099
:100920005908DD00FD205F08303EDF236008303EBF
:10093000DF236108303EDF236208303EDF230800FA
:10094000D3010A24FD241D2534250130E80005309B
:10095000E700EF20D920251FB72C231BB72CE0245C
:10096000E024E024E024E024192534250800A51F14
:10097000BF2CA31BBF2C53080319BF2C0800A51EB6
:10098000CB2CA31ACB2CE024031CC92C192534250D
:1009900008001925342568080319A92CE70BA92C90
:1009A0005A085406031DD82C5B0855060319DD2C84
:1009B000DB0A0319DA0A1D25A72CE8011925A92C41
:1009C000E8015308053C031DE72C031408005408F4
:1009D000031DEF2C5508031DEF2C03140800D30A48
:1009E000D5035508FF3C0319D4035308053C031DE8
:1009F000FB2C03140800031008000430F823033014
:100A0000E4006830E30091220730FB230330E40068
:100A10006F30E30091220330FE230330E400743092
:100A2000E3009122F5230330E4008130E3009122BA
:100A300008005408DA005508DB000B30F8235A0888
:100A4000DC005B08DD00FD205E08303EDF235F0830
:100A5000303EDF236008303EDF236108303EDF2375
:100A60006208303EDF2308000C30FB235308303E81
:100A7000DF23080000308125D50001308125D40016
:100A800002308125AB0003308125AC000430812584
:100A9000AD0005308125AE005408C33C031C562D23
:100AA000031D602D5508503C0318602D0130D40003
:100AB000F430D50067255508DB005408DA0008003B
:100AC0005408031D08005508031D0800562D55083D
:100AD000F000003087255408F00001308725080019
:100AE0002B08F000023087252C08F0000330872502
:100AF0002D08F000043087252E08F00005308725EA
:100B0000080083169B001C141A0883120800831621
:100B10009B0070089A001C158B1355309D00AA305D
:100B20009D009C148B179C18932D1C118312080098
:100B3000E801F5230330E400AA30E3009122643099
:100B4000E700EF20D920A51FAA2DA31BAA2DF5236E
:100B5000E82008000130C7000530CD004708250512
:100B60000319B92D47082305031DB92D4708C506EC
:100B7000D3250310C70DCD0BAE2DE70BA12DF5230B
:100B8000E8200130E806031DCC2DF5230330E400F6
:100B9000AA30E30091229F2DF5230330E400963024
:100BA000E30091229F2D0130C600AA000530A90064
:100BB0002A08FE23AA0AAA0AAA0AAA0A460845057A
:100BC0000319E72D0530DF230630DF23EB2D20301E
:100BD000DF232030DF230310C60DA90BD82D08001A
:02400E00183D5B
:0C4200000D00D0003600A80020000000D7
:00000001FF
